{
  "contractName": "Users",
  "abi": [
    {
      "constant": true,
      "inputs": [
        {
          "name": "user_id",
          "type": "uint32"
        }
      ],
      "name": "returnContractAddress",
      "outputs": [
        {
          "name": "",
          "type": "address"
        }
      ],
      "payable": false,
      "stateMutability": "view",
      "type": "function"
    },
    {
      "constant": true,
      "inputs": [
        {
          "name": "_fname",
          "type": "string"
        },
        {
          "name": "_lname",
          "type": "string"
        },
        {
          "name": "user_id",
          "type": "uint32"
        },
        {
          "name": "_bdate",
          "type": "string"
        }
      ],
      "name": "getNumberOfUserRecords",
      "outputs": [
        {
          "name": "",
          "type": "uint256"
        }
      ],
      "payable": false,
      "stateMutability": "view",
      "type": "function"
    },
    {
      "constant": true,
      "inputs": [
        {
          "name": "user_id",
          "type": "uint32"
        }
      ],
      "name": "userRecordExists",
      "outputs": [
        {
          "name": "",
          "type": "bool"
        },
        {
          "name": "",
          "type": "string"
        },
        {
          "name": "",
          "type": "string"
        }
      ],
      "payable": false,
      "stateMutability": "view",
      "type": "function"
    },
    {
      "constant": true,
      "inputs": [
        {
          "name": "index",
          "type": "uint32"
        }
      ],
      "name": "getUser_fromIndex",
      "outputs": [
        {
          "name": "",
          "type": "uint32"
        }
      ],
      "payable": false,
      "stateMutability": "view",
      "type": "function"
    },
    {
      "constant": false,
      "inputs": [
        {
          "name": "_fname",
          "type": "bytes32"
        },
        {
          "name": "_lname",
          "type": "bytes32"
        },
        {
          "name": "user_id",
          "type": "uint32"
        },
        {
          "name": "_bdate",
          "type": "bytes32"
        }
      ],
      "name": "createUserRecord",
      "outputs": [
        {
          "name": "",
          "type": "bool"
        }
      ],
      "payable": false,
      "stateMutability": "nonpayable",
      "type": "function"
    },
    {
      "constant": true,
      "inputs": [
        {
          "name": "user_id",
          "type": "uint32"
        }
      ],
      "name": "getUserRecord_fromID",
      "outputs": [
        {
          "name": "",
          "type": "bytes32"
        },
        {
          "name": "",
          "type": "bytes32"
        },
        {
          "name": "",
          "type": "bytes32"
        }
      ],
      "payable": false,
      "stateMutability": "view",
      "type": "function"
    }
  ],
  "bytecode": "0x6060604052341561000f57600080fd5b61048d8061001e6000396000f300606060405260043610610078576000357c0100000000000000000000000000000000000000000000000000000000900463ffffffff1680630589a27c1461007d57806320e60045146100d25780634f812001146100fb578063c0fab1a71461013c578063f34ba14f14610185578063f8abfbc1146101ed575b600080fd5b341561008857600080fd5b610090610250565b604051808273ffffffffffffffffffffffffffffffffffffffff1673ffffffffffffffffffffffffffffffffffffffff16815260200191505060405180910390f35b34156100dd57600080fd5b6100e5610258565b6040518082815260200191505060405180910390f35b341561010657600080fd5b610122600480803563ffffffff16906020019091905050610263565b604051808215151515815260200191505060405180910390f35b341561014757600080fd5b610163600480803563ffffffff169060200190919050506102b9565b604051808263ffffffff1663ffffffff16815260200191505060405180910390f35b341561019057600080fd5b6101d36004808035600019169060200190919080356000191690602001909190803563ffffffff16906020019091908035600019169060200190919050506102fc565b604051808215151515815260200191505060405180910390f35b34156101f857600080fd5b610214600480803563ffffffff169060200190919050506103be565b60405180846000191660001916815260200183600019166000191681526020018260001916600019168152602001935050505060405180910390f35b600030905090565b600080805490505090565b600080600160008463ffffffff1663ffffffff1681526020019081526020016000209050600115158160030160009054906101000a900460ff16151514156102ae57600191506102b3565b600091505b50919050565b6000808263ffffffff168154811015156102cf57fe5b90600052602060002090600891828204019190066004029054906101000a900463ffffffff169050919050565b600080600160008563ffffffff1663ffffffff16815260200190815260200160002090508581600001816000191690555084816001018160001916905550828160020181600019169055506000805480600101828161035b9190610402565b916000526020600020906008918282040191900660040286909190916101000a81548163ffffffff021916908363ffffffff1602179055505060018160030160006101000a81548160ff0219169083151502179055506001915050949350505050565b600080600080600160008663ffffffff1663ffffffff1681526020019081526020016000209050806000015481600101548260020154935093509350509193909250565b815481835581811511610437576007016008900481600701600890048360005260206000209182019101610436919061043c565b5b505050565b61045e91905b8082111561045a576000816000905550600101610442565b5090565b905600a165627a7a723058209bd544dd9ee69f32b528a7f365663c3fc88b4391b6f1821f37fc759f18c827ac0029",
  "source": "pragma solidity ^0.4.18;\n\ncontract Users {\n\n    struct userInfo{\n        bytes32 fname;\n        bytes32 lname;\n        bytes32 bdate;\n        bool init;\n    }\n    \n    // an array which holds all the current ids of userRecords, can iterate and find all users with this array\n    uint32[] userRecord_ids;\n    \n    // Every user is uniquely identified by a user_id (SIN_hash)\n    mapping(uint32 => userInfo) userRecords;    \n    \n    function returnContractAddress () public view returns (address) {\n        return address(this);\n    }\n    \n    function getUser_fromIndex (uint32 index) public view returns (uint32) {\n        return userRecord_ids[index];\n    }\n    \n    function getNumberOfUserRecords () public view returns (uint) {\n        userRecord_ids.length;\n    }\n    \n    function createUserRecord (bytes32 _fname, bytes32 _lname, uint32 user_id, bytes32 _bdate) public returns (bool) {\n        var userRecord = userRecords[user_id];\n        userRecord.fname = _fname;\n        userRecord.lname = _lname;\n        userRecord.bdate = _bdate;\n        userRecord_ids.push(user_id);\n        userRecord.init = true;\n        return true;\n    }\n    \n    function userRecordExists(uint32 user_id) public view returns (bool) {\n        var userRecord = userRecords[user_id];\n        if(userRecord.init == true){\n            return true;\n        }\n        else{\n            return false;\n        }\n    }\n    \n    function getUserRecord_fromID (uint32 user_id) public view returns (bytes32, bytes32, bytes32) {\n        var userRecord = userRecords[user_id];\n        return (userRecord.fname, userRecord.lname, userRecord.bdate);\n    }\n}\n",
  "sourcePath": "contracts/Users.sol",
  "compiler": {
    "name": "solc",
    "version": "0.4.18+commit.9cf6e910.Emscripten.clang"
  },
  "schemaVersion": "1.0.1",
  "updatedAt": "2018-02-01T23:25:31.102Z"
}