{
  "contractName": "LandTransfers",
  "abi": [
    {
      "constant": true,
      "inputs": [
        {
          "name": "PIN_hash",
          "type": "uint32"
        }
      ],
      "name": "returnContractAddress",
      "outputs": [
        {
          "name": "",
          "type": "address"
        },
        {
          "name": "",
          "type": "uint32"
        }
      ],
      "payable": false,
      "stateMutability": "view",
      "type": "function"
    },
    {
      "constant": true,
      "inputs": [
        {
          "name": "PIN_hash",
          "type": "uint32"
        },
        {
          "name": "_buyer_id",
          "type": "uint32"
        },
        {
          "name": "_seller_id",
          "type": "uint32"
        }
      ],
      "name": "getLandTransfer_fromPIN",
      "outputs": [
        {
          "name": "",
          "type": "uint32"
        },
        {
          "name": "",
          "type": "uint32"
        }
      ],
      "payable": false,
      "stateMutability": "view",
      "type": "function"
    },
    {
      "constant": true,
      "inputs": [
        {
          "name": "index",
          "type": "uint256"
        },
        {
          "name": "PIN_hash",
          "type": "uint32"
        },
        {
          "name": "_buyer_id",
          "type": "uint32"
        },
        {
          "name": "_seller_id",
          "type": "uint32"
        }
      ],
      "name": "getPIN_fromIndex",
      "outputs": [
        {
          "name": "",
          "type": "uint32"
        }
      ],
      "payable": false,
      "stateMutability": "view",
      "type": "function"
    },
    {
      "constant": false,
      "inputs": [
        {
          "name": "userAddress",
          "type": "address"
        },
        {
          "name": "PIN_hash",
          "type": "uint32"
        },
        {
          "name": "_buyer_id",
          "type": "uint32"
        },
        {
          "name": "_seller_id",
          "type": "uint32"
        }
      ],
      "name": "createLandTransfer",
      "outputs": [
        {
          "name": "",
          "type": "bool"
        }
      ],
      "payable": false,
      "stateMutability": "nonpayable",
      "type": "function"
    },
    {
      "constant": true,
      "inputs": [],
      "name": "getNumLandTransfers",
      "outputs": [
        {
          "name": "",
          "type": "uint256"
        }
      ],
      "payable": false,
      "stateMutability": "view",
      "type": "function"
    }
  ],
  "bytecode": "0x6060604052341561000f57600080fd5b61059b8061001e6000396000f30060606040526004361061006d576000357c0100000000000000000000000000000000000000000000000000000000900463ffffffff1680630589a27c14610072578063082052db146100c75780633cfdcd531461012357806389f15a6f146101665780638a34bd3d146101e4575b600080fd5b341561007d57600080fd5b61008561020d565b604051808273ffffffffffffffffffffffffffffffffffffffff1673ffffffffffffffffffffffffffffffffffffffff16815260200191505060405180910390f35b34156100d257600080fd5b6100ee600480803563ffffffff16906020019091905050610215565b604051808363ffffffff1663ffffffff1681526020018263ffffffff1663ffffffff1681526020019250505060405180910390f35b341561012e57600080fd5b610144600480803590602001909190505061026f565b604051808263ffffffff1663ffffffff16815260200191505060405180910390f35b341561017157600080fd5b6101ca600480803573ffffffffffffffffffffffffffffffffffffffff1690602001909190803563ffffffff1690602001909190803563ffffffff1690602001909190803563ffffffff169060200190919050506102ac565b604051808215151515815260200191505060405180910390f35b34156101ef57600080fd5b6101f7610504565b6040518082815260200191505060405180910390f35b600030905090565b6000806000600160008563ffffffff1663ffffffff16815260200190815260200160002090508060000160009054906101000a900463ffffffff168160000160049054906101000a900463ffffffff169250925050915091565b6000808281548110151561027f57fe5b90600052602060002090600891828204019190066004029054906101000a900463ffffffff169050919050565b6000806000600160008763ffffffff1663ffffffff1681526020019081526020016000209150869050600115158173ffffffffffffffffffffffffffffffffffffffff16634f812001876000604051602001526040518263ffffffff167c0100000000000000000000000000000000000000000000000000000000028152600401808263ffffffff1663ffffffff168152602001915050602060405180830381600087803b151561035c57600080fd5b6102c65a03f1151561036d57600080fd5b50505060405180519050151514156103a757848260000160006101000a81548163ffffffff021916908363ffffffff1602179055506103b0565b600092506104fa565b600115158173ffffffffffffffffffffffffffffffffffffffff16634f812001866000604051602001526040518263ffffffff167c0100000000000000000000000000000000000000000000000000000000028152600401808263ffffffff1663ffffffff168152602001915050602060405180830381600087803b151561043757600080fd5b6102c65a03f1151561044857600080fd5b505050604051805190501515141561048257838260000160046101000a81548163ffffffff021916908363ffffffff16021790555061048b565b600092506104fa565b60018260000160086101000a81548160ff021916908315150217905550600080548060010182816104bc9190610510565b916000526020600020906008918282040191900660040288909190916101000a81548163ffffffff021916908363ffffffff16021790555050600192505b5050949350505050565b60008080549050905090565b815481835581811511610545576007016008900481600701600890048360005260206000209182019101610544919061054a565b5b505050565b61056c91905b80821115610568576000816000905550600101610550565b5090565b905600a165627a7a72305820f4a030a2477969feee43c61dd370d63fabf4f499df8c6f70dedd9d20290571cf0029",
  "source": "pragma solidity ^0.4.18;\n\nimport \"../contracts/Users.sol\";\n\ncontract LandTransfers {\n    \n    struct landTransferInfo{\n        uint32 buyer_id;\n        uint32 seller_id;\n        bool init;\n        // SIN in the future\n        // other transfer details\n    }\n        \n    // an array which holds all the current ids of userRecords, can iterate and find all users with this array\n    uint32[] PIN_hash_array;\n    \n    // Every land parcel is uniquely identified by a PIN_hash\n    mapping(uint32 => landTransferInfo) landTransfers;\n    \n    function returnContractAddress () public view returns (address) {\n        return address(this);\n    }\n    \n    function getPIN_fromIndex (uint index) public view returns (uint32) {\n        return PIN_hash_array[index];\n    }\n    \n    function getNumLandTransfers () public view returns (uint) {\n        return PIN_hash_array.length;\n    }\n    \n    function getLandTransfer_fromPIN (uint32 PIN_hash) view public returns (uint32, uint32) {\n        var userRecord = landTransfers[PIN_hash];\n        return (userRecord.buyer_id, userRecord.seller_id);\n    }\n    \n    function createLandTransfer (address userAddress, uint32 PIN_hash, uint32 _buyer_id, uint32 _seller_id) public returns (bool) {\n        var newLandTransfer = landTransfers[PIN_hash];\n        Users user = Users(userAddress);\n        if(user.userRecordExists(_buyer_id) == true){\n            newLandTransfer.buyer_id = _buyer_id;\n        }\n        else{\n            return false;\n        }\n        if(user.userRecordExists(_seller_id) == true){\n            newLandTransfer.seller_id = _seller_id;\n        }\n        else{\n            return false;\n        }\n        newLandTransfer.init = true;\n        PIN_hash_array.push(PIN_hash);\n        return true;\n    }\n}\n",
  "sourcePath": "/home/girija/Documents/capstone/solander/Solander/contracts/LandTransfers.sol",
  "compiler": {
    "name": "solc",
    "version": "0.4.18+commit.9cf6e910.Emscripten.clang"
  },
  "schemaVersion": "1.0.1",
  "updatedAt": "2018-01-14T06:52:56.542Z"
}