{
  "contractName": "LandTransfers",
  "abi": [
    {
      "constant": true,
      "inputs": [
        {
          "name": "PIN_hash",
          "type": "uint32"
        }
      ],
      "name": "getLandTransfer",
      "outputs": [
        {
          "name": "",
          "type": "uint256"
        },
        {
          "name": "",
          "type": "uint256"
        }
      ],
      "payable": false,
      "stateMutability": "view",
      "type": "function"
    },
    {
      "constant": false,
      "inputs": [
        {
          "name": "PIN_hash",
          "type": "uint32"
        },
        {
          "name": "_buyer_id",
          "type": "uint32"
        },
        {
          "name": "_seller_id",
          "type": "uint32"
        }
      ],
      "name": "createLandTransfer",
      "outputs": [
        {
          "name": "",
          "type": "bool"
        }
      ],
      "payable": false,
      "stateMutability": "nonpayable",
      "type": "function"
    }
  ],
  "bytecode": "0x6060604052341561000f57600080fd5b610a928061001e6000396000f30060606040526004361061004c576000357c0100000000000000000000000000000000000000000000000000000000900463ffffffff1680631f75f3e2146100515780634ce8817914610095575b600080fd5b341561005c57600080fd5b610078600480803563ffffffff169060200190919050506100f4565b604051808381526020018281526020019250505060405180910390f35b34156100a057600080fd5b6100da600480803563ffffffff1690602001909190803563ffffffff1690602001909190803563ffffffff1690602001909190505061012d565b604051808215151515815260200191505060405180910390f35b60008060008060008563ffffffff1663ffffffff1681526020019081526020016000209050806000015481600101549250925050915091565b60008060008060008763ffffffff1663ffffffff168152602001908152602001600020915061015a61031d565b604051809103906000f080151561017057600080fd5b90508073ffffffffffffffffffffffffffffffffffffffff16634f812001856000604051602001526040518263ffffffff167c0100000000000000000000000000000000000000000000000000000000028152600401808263ffffffff1663ffffffff168152602001915050602060405180830381600087803b15156101f557600080fd5b6102c65a03f1151561020657600080fd5b5050506040518051905015610229578363ffffffff168260010181905550610232565b60009250610314565b8073ffffffffffffffffffffffffffffffffffffffff16634f812001866000604051602001526040518263ffffffff167c0100000000000000000000000000000000000000000000000000000000028152600401808263ffffffff1663ffffffff168152602001915050602060405180830381600087803b15156102b557600080fd5b6102c65a03f115156102c657600080fd5b50505060405180519050156102e9578463ffffffff1682600001819055506102f2565b60009250610314565b60018260020160006101000a81548160ff021916908315150217905550600192505b50509392505050565b6040516107398061032e8339019056006060604052341561000f57600080fd5b61071b8061001e6000396000f300606060405260043610610057576000357c0100000000000000000000000000000000000000000000000000000000900463ffffffff1680634f8120011461005c578063e17bd14e1461009d578063f8abfbc1146101a7575b600080fd5b341561006757600080fd5b610083600480803563ffffffff16906020019091905050610321565b604051808215151515815260200191505060405180910390f35b34156100a857600080fd5b61018d600480803590602001908201803590602001908080601f0160208091040260200160405190810160405280939291908181526020018383808284378201915050505050509190803590602001908201803590602001908080601f0160208091040260200160405190810160405280939291908181526020018383808284378201915050505050509190803563ffffffff1690602001909190803590602001908201803590602001908080601f01602080910402602001604051908101604052809392919081815260200183838082843782019150505050505091905050610376565b604051808215151515815260200191505060405180910390f35b34156101b257600080fd5b6101ce600480803563ffffffff1690602001909190505061040e565b60405180806020018060200180602001848103845287818151815260200191508051906020019080838360005b838110156102165780820151818401526020810190506101fb565b50505050905090810190601f1680156102435780820380516001836020036101000a031916815260200191505b50848103835286818151815260200191508051906020019080838360005b8381101561027c578082015181840152602081019050610261565b50505050905090810190601f1680156102a95780820380516001836020036101000a031916815260200191505b50848103825285818151815260200191508051906020019080838360005b838110156102e25780820151818401526020810190506102c7565b50505050905090810190601f16801561030f5780820380516001836020036101000a031916815260200191505b50965050505050505060405180910390f35b6000806000808463ffffffff1663ffffffff1681526020019081526020016000209050600115158160030160009054906101000a900460ff161515141561036b5760019150610370565b600091505b50919050565b6000806000808563ffffffff1663ffffffff1681526020019081526020016000209050858160000190805190602001906103b1929190610636565b50848160010190805190602001906103ca929190610636565b50828160020190805190602001906103e3929190610636565b5060018160030160006101000a81548160ff0219169083151502179055506001915050949350505050565b6104166106b6565b61041e6106b6565b6104266106b6565b60008060008663ffffffff1663ffffffff1681526020019081526020016000209050806000018160010182600201828054600181600116156101000203166002900480601f0160208091040260200160405190810160405280929190818152602001828054600181600116156101000203166002900480156104e95780601f106104be576101008083540402835291602001916104e9565b820191906000526020600020905b8154815290600101906020018083116104cc57829003601f168201915b50505050509250818054600181600116156101000203166002900480601f0160208091040260200160405190810160405280929190818152602001828054600181600116156101000203166002900480156105855780601f1061055a57610100808354040283529160200191610585565b820191906000526020600020905b81548152906001019060200180831161056857829003601f168201915b50505050509150808054600181600116156101000203166002900480601f0160208091040260200160405190810160405280929190818152602001828054600181600116156101000203166002900480156106215780601f106105f657610100808354040283529160200191610621565b820191906000526020600020905b81548152906001019060200180831161060457829003601f168201915b50505050509050935093509350509193909250565b828054600181600116156101000203166002900490600052602060002090601f016020900481019282601f1061067757805160ff19168380011785556106a5565b828001600101855582156106a5579182015b828111156106a4578251825591602001919060010190610689565b5b5090506106b291906106ca565b5090565b602060405190810160405280600081525090565b6106ec91905b808211156106e85760008160009055506001016106d0565b5090565b905600a165627a7a723058202c568b433892049d1700e02d3eee35cbf10c02bea0a865b171bfe166bf5db0430029a165627a7a72305820ca981a5d79bf6a879f097d1bd2c65b68a121be5d707fce5907cff44de009d4a30029",
  "source": "pragma solidity ^0.4.18;\n\nimport \"contracts/Users.sol\";\n    \ncontract LandTransfers {\n    \n    struct landTransferInfo{\n        uint buyer_id;\n        uint seller_id;\n        bool init;\n        // SIN in the future\n        // other transfer details\n    }\n    \n    // Every land parcel is uniquely identified by a PIN_hash\n    mapping(uint32 => landTransferInfo) landTransfers;\n    \n    function getLandTransfer (uint32 PIN_hash) view public returns (uint, uint) {\n        var userRecord = landTransfers[PIN_hash];\n        return (userRecord.buyer_id, userRecord.seller_id);\n    }\n    \n    function createLandTransfer (uint32 PIN_hash, uint32 _buyer_id, uint32 _seller_id) public returns (bool) {\n        var newLandTransfer = landTransfers[PIN_hash];\n        Users user = new Users();\n        if(user.userRecordExists(_seller_id)){\n            newLandTransfer.seller_id = _seller_id;\n        }\n        else{\n            return false;\n        }\n        if(user.userRecordExists(_buyer_id)){\n            newLandTransfer.buyer_id = _buyer_id;\n        }\n        else{\n            return false;\n        }\n        newLandTransfer.init = true;\n        return true;\n    }\n}",
  "sourcePath": "/home/ubuntu/workspace/solander/Solander/contracts/LandTransfers.sol",
  "compiler": {
    "name": "solc",
    "version": "0.4.18+commit.9cf6e910.Emscripten.clang"
  },
  "schemaVersion": "1.0.1",
  "updatedAt": "2018-01-11T21:53:42.063Z"
}