{
  "contractName": "Users",
  "abi": [
    {
      "constant": true,
      "inputs": [
        {
          "name": "SIN_hash",
          "type": "uint32"
        }
      ],
      "name": "getUserRecord",
      "outputs": [
        {
          "name": "",
          "type": "string"
        },
        {
          "name": "",
          "type": "string"
        },
        {
          "name": "",
          "type": "string"
        }
      ],
      "payable": false,
      "stateMutability": "view",
      "type": "function"
    },
    {
      "constant": false,
      "inputs": [
        {
          "name": "_fname",
          "type": "string"
        },
        {
          "name": "_lname",
          "type": "string"
        },
        {
          "name": "SIN_hash",
          "type": "uint32"
        },
        {
          "name": "_bdate",
          "type": "string"
        }
      ],
      "name": "createUserRecord",
      "outputs": [
        {
          "name": "",
          "type": "bool"
        }
      ],
      "payable": false,
      "stateMutability": "nonpayable",
      "type": "function"
    }
  ],
  "bytecode": "0x6060604052341561000f57600080fd5b61065d8061001e6000396000f30060606040526004361061004c576000357c0100000000000000000000000000000000000000000000000000000000900463ffffffff1680639987cb0414610051578063e17bd14e146101cb575b600080fd5b341561005c57600080fd5b610078600480803563ffffffff169060200190919050506102d5565b60405180806020018060200180602001848103845287818151815260200191508051906020019080838360005b838110156100c05780820151818401526020810190506100a5565b50505050905090810190601f1680156100ed5780820380516001836020036101000a031916815260200191505b50848103835286818151815260200191508051906020019080838360005b8381101561012657808201518184015260208101905061010b565b50505050905090810190601f1680156101535780820380516001836020036101000a031916815260200191505b50848103825285818151815260200191508051906020019080838360005b8381101561018c578082015181840152602081019050610171565b50505050905090810190601f1680156101b95780820380516001836020036101000a031916815260200191505b50965050505050505060405180910390f35b34156101d657600080fd5b6102bb600480803590602001908201803590602001908080601f0160208091040260200160405190810160405280939291908181526020018383808284378201915050505050509190803590602001908201803590602001908080601f0160208091040260200160405190810160405280939291908181526020018383808284378201915050505050509190803563ffffffff1690602001909190803590602001908201803590602001908080601f016020809104026020016040519081016040528093929190818152602001838380828437820191505050505050919050506104fd565b604051808215151515815260200191505060405180910390f35b6102dd610578565b6102e5610578565b6102ed610578565b60008060008663ffffffff1663ffffffff1681526020019081526020016000209050806000018160010182600201828054600181600116156101000203166002900480601f0160208091040260200160405190810160405280929190818152602001828054600181600116156101000203166002900480156103b05780601f10610385576101008083540402835291602001916103b0565b820191906000526020600020905b81548152906001019060200180831161039357829003601f168201915b50505050509250818054600181600116156101000203166002900480601f01602080910402602001604051908101604052809291908181526020018280546001816001161561010002031660029004801561044c5780601f106104215761010080835404028352916020019161044c565b820191906000526020600020905b81548152906001019060200180831161042f57829003601f168201915b50505050509150808054600181600116156101000203166002900480601f0160208091040260200160405190810160405280929190818152602001828054600181600116156101000203166002900480156104e85780601f106104bd576101008083540402835291602001916104e8565b820191906000526020600020905b8154815290600101906020018083116104cb57829003601f168201915b50505050509050935093509350509193909250565b6000806000808563ffffffff1663ffffffff16815260200190815260200160002090508581600001908051906020019061053892919061058c565b508481600101908051906020019061055192919061058c565b508281600201908051906020019061056a92919061058c565b506001915050949350505050565b602060405190810160405280600081525090565b828054600181600116156101000203166002900490600052602060002090601f016020900481019282601f106105cd57805160ff19168380011785556105fb565b828001600101855582156105fb579182015b828111156105fa5782518255916020019190600101906105df565b5b509050610608919061060c565b5090565b61062e91905b8082111561062a576000816000905550600101610612565b5090565b905600a165627a7a723058207c681498bf4d94f5aa0b697f1b273b2d98eed74b5ff3bc9b43a3ddaa525fa34f0029",
  "source": "pragma solidity ^0.4.18;\n\ncontract Users {\n\n    struct userInfo{\n        string fname;\n        string lname;\n        string bdate;\n    }\n\n    // Every user is uniquely identified by a SIN_hash\n    mapping(uint32 => userInfo) userRecords;    \n    \n    function createUserRecord (string _fname, string _lname, uint32 SIN_hash, string _bdate) public returns (bool) {\n        var userRecord = userRecords[SIN_hash];\n        userRecord.fname = _fname;\n        userRecord.lname = _lname;\n        userRecord.bdate = _bdate;\n        return true;\n    }\n    \n    function getUserRecord (uint32 SIN_hash) public view returns (string, string, string) {\n        var userRecord = userRecords[SIN_hash];\n        return (userRecord.fname, userRecord.lname, userRecord.bdate);\n    }\n\n}\n",
  "sourcePath": "/home/ubuntu/workspace/solander/Solander/contracts/Users.sol",
  "compiler": {
    "name": "solc",
    "version": "0.4.18+commit.9cf6e910.Emscripten.clang"
  },
  "schemaVersion": "1.0.1",
  "updatedAt": "2018-01-10T20:48:53.815Z"
}