{
  "contractName": "Users",
  "abi": [
    {
      "constant": true,
      "inputs": [
        {
          "name": "user_id",
          "type": "uint32"
        }
      ],
      "name": "returnContractAddress",
      "outputs": [
        {
          "name": "",
          "type": "address"
        }
      ],
      "payable": false,
      "stateMutability": "view",
      "type": "function"
    },
    {
      "constant": true,
      "inputs": [
        {
          "name": "_fname",
          "type": "string"
        },
        {
          "name": "_lname",
          "type": "string"
        },
        {
          "name": "user_id",
          "type": "uint32"
        },
        {
          "name": "_bdate",
          "type": "string"
        }
      ],
      "name": "getNumberOfUserRecords",
      "outputs": [
        {
          "name": "",
          "type": "uint256"
        }
      ],
      "payable": false,
      "stateMutability": "view",
      "type": "function"
    },
    {
      "constant": true,
      "inputs": [
        {
          "name": "index",
          "type": "uint256"
        }
      ],
      "name": "getUser_fromIndex",
      "outputs": [
        {
          "name": "",
          "type": "uint32"
        },
        {
          "name": "",
          "type": "string"
        },
        {
          "name": "",
          "type": "string"
        }
      ],
      "payable": false,
      "stateMutability": "view",
      "type": "function"
    },
    {
      "constant": true,
      "inputs": [
        {
          "name": "user_id",
          "type": "uint32"
        }
      ],
      "name": "userRecordExists",
      "outputs": [
        {
          "name": "",
          "type": "bool"
        }
      ],
      "payable": false,
      "stateMutability": "view",
      "type": "function"
    },
    {
      "constant": false,
      "inputs": [
        {
          "name": "_fname",
          "type": "bytes32"
        },
        {
          "name": "_lname",
          "type": "bytes32"
        },
        {
          "name": "user_id",
          "type": "uint32"
        },
        {
          "name": "_bdate",
          "type": "bytes32"
        }
      ],
      "name": "createUserRecord",
      "outputs": [
        {
          "name": "",
          "type": "bool"
        }
      ],
      "payable": false,
      "stateMutability": "nonpayable",
      "type": "function"
    },
    {
      "constant": true,
      "inputs": [
        {
          "name": "user_id",
          "type": "uint32"
        }
      ],
      "name": "getUserRecord_fromID",
      "outputs": [
        {
          "name": "",
          "type": "bytes32"
        },
        {
          "name": "",
          "type": "bytes32"
        },
        {
          "name": "",
          "type": "bytes32"
        }
      ],
      "payable": false,
      "stateMutability": "view",
      "type": "function"
    }
  ],
  "bytecode": "0x6060604052341561000f57600080fd5b6104818061001e6000396000f300606060405260043610610078576000357c0100000000000000000000000000000000000000000000000000000000900463ffffffff1680630589a27c1461007d57806320e60045146100d2578063442f7d12146100fb5780634f8120011461013e578063f34ba14f1461017f578063f8abfbc1146101e7575b600080fd5b341561008857600080fd5b61009061024a565b604051808273ffffffffffffffffffffffffffffffffffffffff1673ffffffffffffffffffffffffffffffffffffffff16815260200191505060405180910390f35b34156100dd57600080fd5b6100e5610252565b6040518082815260200191505060405180910390f35b341561010657600080fd5b61011c600480803590602001909190505061025d565b604051808263ffffffff1663ffffffff16815260200191505060405180910390f35b341561014957600080fd5b610165600480803563ffffffff1690602001909190505061029a565b604051808215151515815260200191505060405180910390f35b341561018a57600080fd5b6101cd6004808035600019169060200190919080356000191690602001909190803563ffffffff16906020019091908035600019169060200190919050506102f0565b604051808215151515815260200191505060405180910390f35b34156101f257600080fd5b61020e600480803563ffffffff169060200190919050506103b2565b60405180846000191660001916815260200183600019166000191681526020018260001916600019168152602001935050505060405180910390f35b600030905090565b600080805490505090565b6000808281548110151561026d57fe5b90600052602060002090600891828204019190066004029054906101000a900463ffffffff169050919050565b600080600160008463ffffffff1663ffffffff1681526020019081526020016000209050600115158160030160009054906101000a900460ff16151514156102e557600191506102ea565b600091505b50919050565b600080600160008563ffffffff1663ffffffff16815260200190815260200160002090508581600001816000191690555084816001018160001916905550828160020181600019169055506000805480600101828161034f91906103f6565b916000526020600020906008918282040191900660040286909190916101000a81548163ffffffff021916908363ffffffff1602179055505060018160030160006101000a81548160ff0219169083151502179055506001915050949350505050565b600080600080600160008663ffffffff1663ffffffff1681526020019081526020016000209050806000015481600101548260020154935093509350509193909250565b81548183558181151161042b57600701600890048160070160089004836000526020600020918201910161042a9190610430565b5b505050565b61045291905b8082111561044e576000816000905550600101610436565b5090565b905600a165627a7a7230582009ab15abe5c4867e04af3f2938f508d7cd7626bdc1ecfc5aaf18f56abb8107b40029",
  "source": "pragma solidity ^0.4.18;\n\ncontract Users {\n\n    struct userInfo{\n        bytes32 fname;\n        bytes32 lname;\n        bytes32 bdate;\n        bool init;\n    }\n    \n    // an array which holds all the current ids of userRecords, can iterate and find all users with this array\n    uint32[] userRecord_ids;\n    \n    // Every user is uniquely identified by a user_id (SIN_hash)\n    mapping(uint32 => userInfo) userRecords;    \n    \n    function returnContractAddress () public view returns (address) {\n        return address(this);\n    }\n    \n    function getUser_fromIndex (uint index) public view returns (uint32) {\n        return userRecord_ids[index];\n    }\n    \n    function getNumberOfUserRecords () public view returns (uint) {\n        userRecord_ids.length;\n    }\n    \n    function createUserRecord (bytes32 _fname, bytes32 _lname, uint32 user_id, bytes32 _bdate) public returns (bool) {\n        var userRecord = userRecords[user_id];\n        userRecord.fname = _fname;\n        userRecord.lname = _lname;\n        userRecord.bdate = _bdate;\n        userRecord_ids.push(user_id);\n        userRecord.init = true;\n        return true;\n    }\n    \n    function userRecordExists(uint32 user_id) public view returns (bool) {\n        var userRecord = userRecords[user_id];\n        if(userRecord.init == true){\n            return true;\n        }\n        else{\n            return false;\n        }\n    }\n    \n    function getUserRecord_fromID (uint32 user_id) public view returns (bytes32, bytes32, bytes32) {\n        var userRecord = userRecords[user_id];\n        return (userRecord.fname, userRecord.lname, userRecord.bdate);\n    }\n}\n",
  "sourcePath": "/home/girija/Documents/capstone/solander/Solander/contracts/Users.sol",
  "compiler": {
    "name": "solc",
    "version": "0.4.18+commit.9cf6e910.Emscripten.clang"
  },
  "schemaVersion": "1.0.1",
  "updatedAt": "2018-01-14T07:31:36.832Z"
}