{
  "contractName": "Users",
  "abi": [
    {
      "constant": false,
      "inputs": [],
      "name": "getUsers",
      "outputs": [
        {
          "name": "",
          "type": "uint32"
        }
      ],
      "payable": false,
      "stateMutability": "nonpayable",
      "type": "function"
    },
    {
      "constant": false,
      "inputs": [],
      "name": "initUsers",
      "outputs": [],
      "payable": false,
      "stateMutability": "nonpayable",
      "type": "function"
    },
    {
      "constant": true,
      "inputs": [
        {
          "name": "SIN_hash",
          "type": "uint32"
        }
      ],
      "name": "getUserRecord",
      "outputs": [
        {
          "name": "",
          "type": "string"
        },
        {
          "name": "",
          "type": "string"
        },
        {
          "name": "",
          "type": "string"
        }
      ],
      "payable": false,
      "stateMutability": "view",
      "type": "function"
    },
    {
      "constant": false,
      "inputs": [
        {
          "name": "newUser",
          "type": "uint32"
        }
      ],
      "name": "setUsers",
      "outputs": [],
      "payable": false,
      "stateMutability": "nonpayable",
      "type": "function"
    },
    {
      "constant": false,
      "inputs": [
        {
          "name": "_fname",
          "type": "string"
        },
        {
          "name": "_lname",
          "type": "string"
        },
        {
          "name": "SIN_hash",
          "type": "uint32"
        },
        {
          "name": "_bdate",
          "type": "string"
        }
      ],
      "name": "createUserRecord",
      "outputs": [
        {
          "name": "",
          "type": "bool"
        }
      ],
      "payable": false,
      "stateMutability": "nonpayable",
      "type": "function"
    }
  ],
  "bytecode": "0x6060604052341561000f57600080fd5b6107528061001e6000396000f30060606040526004361061006c576000357c0100000000000000000000000000000000000000000000000000000000900463ffffffff168062ce8e3e146100715780632294c48a146100a65780639987cb04146100bb578063c770558714610235578063e17bd14e1461025e575b600080fd5b341561007c57600080fd5b610084610368565b604051808263ffffffff1663ffffffff16815260200191505060405180910390f35b34156100b157600080fd5b6100b9610382565b005b34156100c657600080fd5b6100e2600480803563ffffffff169060200190919050506103a6565b60405180806020018060200180602001848103845287818151815260200191508051906020019080838360005b8381101561012a57808201518184015260208101905061010f565b50505050905090810190601f1680156101575780820380516001836020036101000a031916815260200191505b50848103835286818151815260200191508051906020019080838360005b83811015610190578082015181840152602081019050610175565b50505050905090810190601f1680156101bd5780820380516001836020036101000a031916815260200191505b50848103825285818151815260200191508051906020019080838360005b838110156101f65780820151818401526020810190506101db565b50505050905090810190601f1680156102235780820380516001836020036101000a031916815260200191505b50965050505050505060405180910390f35b341561024057600080fd5b61025c600480803563ffffffff169060200190919050506105ce565b005b341561026957600080fd5b61034e600480803590602001908201803590602001908080601f0160208091040260200160405190810160405280939291908181526020018383808284378201915050505050509190803590602001908201803590602001908080601f0160208091040260200160405190810160405280939291908181526020018383808284378201915050505050509190803563ffffffff1690602001909190803590602001908201803590602001908080601f016020809104026020016040519081016040528093929190818152602001838380828437820191505050505050919050506105f2565b604051808215151515815260200191505060405180910390f35b6000600160009054906101000a900463ffffffff16905090565b6000600160006101000a81548163ffffffff021916908363ffffffff160217905550565b6103ae61066d565b6103b661066d565b6103be61066d565b60008060008663ffffffff1663ffffffff1681526020019081526020016000209050806000018160010182600201828054600181600116156101000203166002900480601f0160208091040260200160405190810160405280929190818152602001828054600181600116156101000203166002900480156104815780601f1061045657610100808354040283529160200191610481565b820191906000526020600020905b81548152906001019060200180831161046457829003601f168201915b50505050509250818054600181600116156101000203166002900480601f01602080910402602001604051908101604052809291908181526020018280546001816001161561010002031660029004801561051d5780601f106104f25761010080835404028352916020019161051d565b820191906000526020600020905b81548152906001019060200180831161050057829003601f168201915b50505050509150808054600181600116156101000203166002900480601f0160208091040260200160405190810160405280929190818152602001828054600181600116156101000203166002900480156105b95780601f1061058e576101008083540402835291602001916105b9565b820191906000526020600020905b81548152906001019060200180831161059c57829003601f168201915b50505050509050935093509350509193909250565b80600160006101000a81548163ffffffff021916908363ffffffff16021790555050565b6000806000808563ffffffff1663ffffffff16815260200190815260200160002090508581600001908051906020019061062d929190610681565b5084816001019080519060200190610646929190610681565b508281600201908051906020019061065f929190610681565b506001915050949350505050565b602060405190810160405280600081525090565b828054600181600116156101000203166002900490600052602060002090601f016020900481019282601f106106c257805160ff19168380011785556106f0565b828001600101855582156106f0579182015b828111156106ef5782518255916020019190600101906106d4565b5b5090506106fd9190610701565b5090565b61072391905b8082111561071f576000816000905550600101610707565b5090565b905600a165627a7a723058208e7a76d3744ceebf97ea998cdee5fb785dc7de0ed5e5eaf77d0a9f163afba8510029",
  "source": "pragma solidity ^0.4.18;\n\ncontract Users {\n\n    struct userInfo{\n        string fname;\n        string lname;\n        string bdate;\n    }\n\n    // Every user is uniquely identified by a SIN_hash\n    mapping(uint32 => userInfo) userRecords;    \n    \n    function createUserRecord (string _fname, string _lname, uint32 SIN_hash, string _bdate) public returns (bool) {\n        var userRecord = userRecords[SIN_hash];\n        userRecord.fname = _fname;\n        userRecord.lname = _lname;\n        userRecord.bdate = _bdate;\n        return true;\n    }\n    \n    function getUserRecord (uint32 SIN_hash) public view returns (string, string, string) {\n        var userRecord = userRecords[SIN_hash];\n        return (userRecord.fname, userRecord.lname, userRecord.bdate);\n    }\n    \n    uint32 user; \n    \n    function initUsers () public {\n        user = 0;\n    }\n    \n    function setUsers (uint32 newUser) public {\n        user = newUser;\n    }\n    \n    function getUsers () public returns (uint32) {\n        return user;\n    }\n}\n",
  "sourcePath": "/home/ubuntu/workspace/solander/Solander/contracts/Users.sol",
  "compiler": {
    "name": "solc",
    "version": "0.4.18+commit.9cf6e910.Emscripten.clang"
  },
  "schemaVersion": "1.0.1",
  "updatedAt": "2018-01-11T04:50:02.456Z"
}