{
  "contractName": "Users",
  "abi": [
    {
      "constant": true,
      "inputs": [
        {
          "name": "user_id",
          "type": "uint32"
        }
      ],
      "name": "returnContractAddress",
      "outputs": [
        {
          "name": "",
          "type": "address"
        }
      ],
      "payable": false,
      "stateMutability": "view",
      "type": "function"
    },
    {
      "constant": true,
      "inputs": [
        {
          "name": "_fname",
          "type": "string"
        },
        {
          "name": "_lname",
          "type": "string"
        },
        {
          "name": "user_id",
          "type": "uint32"
        },
        {
          "name": "_bdate",
          "type": "string"
        }
      ],
      "name": "getNumberOfUserRecords",
      "outputs": [
        {
          "name": "",
          "type": "uint256"
        }
      ],
      "payable": false,
      "stateMutability": "view",
      "type": "function"
    },
    {
      "constant": true,
      "inputs": [
        {
          "name": "user_id",
          "type": "uint32"
        }
      ],
      "name": "userRecordExists",
      "outputs": [
        {
          "name": "",
          "type": "bool"
        },
        {
          "name": "",
          "type": "string"
        },
        {
          "name": "",
          "type": "string"
        }
      ],
      "payable": false,
      "stateMutability": "view",
      "type": "function"
    },
    {
      "constant": true,
      "inputs": [
        {
          "name": "user_id",
          "type": "uint32"
        }
      ],
      "name": "getAllUserRecordsIDs",
      "outputs": [
        {
          "name": "",
          "type": "uint32[]"
        }
      ],
      "payable": false,
      "stateMutability": "view",
      "type": "function"
    },
    {
      "constant": false,
      "inputs": [
        {
          "name": "_fname",
          "type": "string"
        },
        {
          "name": "_lname",
          "type": "string"
        },
        {
          "name": "user_id",
          "type": "uint32"
        },
        {
          "name": "_bdate",
          "type": "string"
        }
      ],
      "name": "createUserRecord",
      "outputs": [
        {
          "name": "",
          "type": "bool"
        }
      ],
      "payable": false,
      "stateMutability": "nonpayable",
      "type": "function"
    },
    {
      "constant": true,
      "inputs": [
        {
          "name": "user_id",
          "type": "uint32"
        }
      ],
      "name": "getUserRecord_fromID",
      "outputs": [
        {
          "name": "",
          "type": "string"
        },
        {
          "name": "",
          "type": "string"
        },
        {
          "name": "",
          "type": "string"
        }
      ],
      "payable": false,
      "stateMutability": "view",
      "type": "function"
    }
  ],
  "bytecode": "0x6060604052341561000f57600080fd5b61095f8061001e6000396000f300606060405260043610610078576000357c0100000000000000000000000000000000000000000000000000000000900463ffffffff1680630589a27c1461007d57806320e60045146100d25780634f812001146100fb57806372b130281461013c578063e17bd14e146101a6578063f8abfbc1146102b0575b600080fd5b341561008857600080fd5b61009061042a565b604051808273ffffffffffffffffffffffffffffffffffffffff1673ffffffffffffffffffffffffffffffffffffffff16815260200191505060405180910390f35b34156100dd57600080fd5b6100e5610432565b6040518082815260200191505060405180910390f35b341561010657600080fd5b610122600480803563ffffffff1690602001909190505061043d565b604051808215151515815260200191505060405180910390f35b341561014757600080fd5b61014f610493565b6040518080602001828103825283818151815260200191508051906020019060200280838360005b83811015610192578082015181840152602081019050610177565b505050509050019250505060405180910390f35b34156101b157600080fd5b610296600480803590602001908201803590602001908080601f0160208091040260200160405190810160405280939291908181526020018383808284378201915050505050509190803590602001908201803590602001908080601f0160208091040260200160405190810160405280939291908181526020018383808284378201915050505050509190803563ffffffff1690602001909190803590602001908201803590602001908080601f0160208091040260200160405190810160405280939291908181526020018383808284378201915050505050509190505061051d565b604051808215151515815260200191505060405180910390f35b34156102bb57600080fd5b6102d7600480803563ffffffff16906020019091905050610603565b60405180806020018060200180602001848103845287818151815260200191508051906020019080838360005b8381101561031f578082015181840152602081019050610304565b50505050905090810190601f16801561034c5780820380516001836020036101000a031916815260200191505b50848103835286818151815260200191508051906020019080838360005b8381101561038557808201518184015260208101905061036a565b50505050905090810190601f1680156103b25780820380516001836020036101000a031916815260200191505b50848103825285818151815260200191508051906020019080838360005b838110156103eb5780820151818401526020810190506103d0565b50505050905090810190601f1680156104185780820380516001836020036101000a031916815260200191505b50965050505050505060405180910390f35b600030905090565b600080805490505090565b600080600160008463ffffffff1663ffffffff1681526020019081526020016000209050600115158160030160009054906101000a900460ff1615151415610488576001915061048d565b600091505b50919050565b61049b61082c565b600080548060200260200160405190810160405280929190818152602001828054801561051357602002820191906000526020600020906000905b82829054906101000a900463ffffffff1663ffffffff16815260200190600401906020826003010492830192600103820291508084116104d65790505b5050505050905090565b600080600160008563ffffffff1663ffffffff168152602001908152602001600020905085816000019080519060200190610559929190610840565b5084816001019080519060200190610572929190610840565b508281600201908051906020019061058b929190610840565b50600080548060010182816105a091906108c0565b916000526020600020906008918282040191900660040286909190916101000a81548163ffffffff021916908363ffffffff1602179055505060018160030160006101000a81548160ff0219169083151502179055506001915050949350505050565b61060b6108fa565b6106136108fa565b61061b6108fa565b6000600160008663ffffffff1663ffffffff1681526020019081526020016000209050806000018160010182600201828054600181600116156101000203166002900480601f0160208091040260200160405190810160405280929190818152602001828054600181600116156101000203166002900480156106df5780601f106106b4576101008083540402835291602001916106df565b820191906000526020600020905b8154815290600101906020018083116106c257829003601f168201915b50505050509250818054600181600116156101000203166002900480601f01602080910402602001604051908101604052809291908181526020018280546001816001161561010002031660029004801561077b5780601f106107505761010080835404028352916020019161077b565b820191906000526020600020905b81548152906001019060200180831161075e57829003601f168201915b50505050509150808054600181600116156101000203166002900480601f0160208091040260200160405190810160405280929190818152602001828054600181600116156101000203166002900480156108175780601f106107ec57610100808354040283529160200191610817565b820191906000526020600020905b8154815290600101906020018083116107fa57829003601f168201915b50505050509050935093509350509193909250565b602060405190810160405280600081525090565b828054600181600116156101000203166002900490600052602060002090601f016020900481019282601f1061088157805160ff19168380011785556108af565b828001600101855582156108af579182015b828111156108ae578251825591602001919060010190610893565b5b5090506108bc919061090e565b5090565b8154818355818115116108f55760070160089004816007016008900483600052602060002091820191016108f4919061090e565b5b505050565b602060405190810160405280600081525090565b61093091905b8082111561092c576000816000905550600101610914565b5090565b905600a165627a7a72305820e50eecfd31ae685ca46af476fba7233652db91b42d0f3e9e5b43e28939d577fa0029",
  "source": "pragma solidity ^0.4.18;\n\ncontract Users {\n\n    struct userInfo{\n        string fname;\n        string lname;\n        string bdate;\n        bool init;\n    }\n    \n    // an array which holds all the current ids of userRecords, can iterate and find all users with this array\n    uint32[] userRecord_ids;\n    \n    // Every user is uniquely identified by a user_id (SIN_hash)\n    mapping(uint32 => userInfo) userRecords;    \n    \n    function returnContractAddress () public view returns (address) {\n        return address(this);\n    }\n    \n    function getAllUserRecordsIDs () public view returns (uint32[]) {\n        return userRecord_ids;\n    }\n    \n    function getNumberOfUserRecords () public view returns (uint) {\n        userRecord_ids.length;\n    }\n    \n    function createUserRecord (string _fname, string _lname, uint32 user_id, string _bdate) public returns (bool) {\n        var userRecord = userRecords[user_id];\n        userRecord.fname = _fname;\n        userRecord.lname = _lname;\n        userRecord.bdate = _bdate;\n        userRecord_ids.push(user_id);\n        userRecord.init = true;\n        return true;\n    }\n    \n    function userRecordExists(uint32 user_id) public view returns (bool) {\n        var userRecord = userRecords[user_id];\n        if(userRecord.init == true){\n            return true;\n        }\n        else{\n            return false;\n        }\n    }\n    \n    function getUserRecord_fromID (uint32 user_id) public view returns (string, string, string) {\n        var userRecord = userRecords[user_id];\n        return (userRecord.fname, userRecord.lname, userRecord.bdate);\n    }\n}\n",
  "sourcePath": "contracts/Users.sol",
  "compiler": {
    "name": "solc",
    "version": "0.4.18+commit.9cf6e910.Emscripten.clang"
  },
  "schemaVersion": "1.0.1",
  "updatedAt": "2018-01-14T07:40:31.064Z"
}