{
  "contractName": "LandTransfers",
  "abi": [
    {
      "constant": true,
      "inputs": [],
      "name": "returnContractAddress",
      "outputs": [
        {
          "name": "",
          "type": "address"
        }
      ],
      "payable": false,
      "stateMutability": "view",
      "type": "function"
    },
    {
      "constant": true,
      "inputs": [
        {
          "name": "index",
          "type": "uint256"
        }
      ],
      "name": "getPIN",
      "outputs": [
        {
          "name": "",
          "type": "uint32"
        }
      ],
      "payable": false,
      "stateMutability": "view",
      "type": "function"
    },
    {
      "constant": true,
      "inputs": [],
      "name": "getNumLandTransfers",
      "outputs": [
        {
          "name": "",
          "type": "uint256"
        }
      ],
      "payable": false,
      "stateMutability": "view",
      "type": "function"
    },
    {
      "constant": false,
      "inputs": [
        {
          "name": "_PIN",
          "type": "uint32"
        },
        {
          "name": "_buyer_id",
          "type": "uint32"
        },
        {
          "name": "_lat",
          "type": "uint32"
        },
        {
          "name": "_lon",
          "type": "uint32"
        }
      ],
      "name": "createLandTransfer",
      "outputs": [
        {
          "name": "",
          "type": "bool"
        }
      ],
      "payable": false,
      "stateMutability": "nonpayable",
      "type": "function"
    },
    {
      "constant": true,
      "inputs": [
        {
          "name": "_PIN",
          "type": "uint32"
        }
      ],
      "name": "getLandTransfer",
      "outputs": [
        {
          "name": "",
          "type": "uint32"
        },
        {
          "name": "",
          "type": "uint32"
        },
        {
          "name": "",
          "type": "uint32"
        }
      ],
      "payable": false,
      "stateMutability": "view",
      "type": "function"
    }
  ],
  "bytecode": "0x6060604052341561000f57600080fd5b6104608061001e6000396000f30060606040526004361061006d576000357c0100000000000000000000000000000000000000000000000000000000900463ffffffff1680630589a27c1461007257806306c4c260146100c75780631f75f3e2146101355780638a34bd3d146101a4578063f8f61d7e146101cd575b600080fd5b341561007d57600080fd5b610085610210565b604051808273ffffffffffffffffffffffffffffffffffffffff1673ffffffffffffffffffffffffffffffffffffffff16815260200191505060405180910390f35b34156100d257600080fd5b61011b600480803563ffffffff1690602001909190803563ffffffff1690602001909190803563ffffffff1690602001909190803563ffffffff16906020019091905050610218565b604051808215151515815260200191505060405180910390f35b341561014057600080fd5b61015c600480803563ffffffff16906020019091905050610318565b604051808463ffffffff1663ffffffff1681526020018363ffffffff1663ffffffff1681526020018263ffffffff1663ffffffff168152602001935050505060405180910390f35b34156101af57600080fd5b6101b761038c565b6040518082815260200191505060405180910390f35b34156101d857600080fd5b6101ee6004808035906020019091905050610398565b604051808263ffffffff1663ffffffff16815260200191505060405180910390f35b600030905090565b600080600160008763ffffffff1663ffffffff1681526020019081526020016000209050848160000160006101000a81548163ffffffff021916908363ffffffff160217905550838160000160086101000a81548163ffffffff021916908363ffffffff1602179055508281600001600c6101000a81548163ffffffff021916908363ffffffff16021790555060018160000160106101000a81548160ff021916908315150217905550600080548060010182816102d691906103d5565b916000526020600020906008918282040191900660040288909190916101000a81548163ffffffff021916908363ffffffff1602179055505050949350505050565b600080600080600160008663ffffffff1663ffffffff16815260200190815260200160002090508060000160009054906101000a900463ffffffff168160000160089054906101000a900463ffffffff1682600001600c9054906101000a900463ffffffff16935093509350509193909250565b60008080549050905090565b600080828154811015156103a857fe5b90600052602060002090600891828204019190066004029054906101000a900463ffffffff169050919050565b81548183558181151161040a576007016008900481600701600890048360005260206000209182019101610409919061040f565b5b505050565b61043191905b8082111561042d576000816000905550600101610415565b5090565b905600a165627a7a723058203e98e7b0ebeae1b7995a3bac100f427df98c990bf81bccfb2c6dc253b953967f0029",
  "source": "pragma solidity ^0.4.18;\ncontract LandTransfers {\n    \n    struct landTransferInfo{\n        uint32 buyer_id;\n        uint32 seller_id;\n        uint32 lat;\n        uint32 lon;\n        bool init;\n    }\n\n    // an array which holds all the current ids of userRecords, can iterate and find all users with this array\n    uint32[] PIN_hash_array;\n\n    // Every land parcel is uniquely identified by a PIN_hash\n    mapping(uint32 => landTransferInfo) landTransfers;\n    \n    function returnContractAddress () public view returns (address) {\n        return address(this);\n    }\n    \n    function getPIN (uint index) public view returns (uint32) {\n        return PIN_hash_array[index];\n    }\n    \n    function getNumLandTransfers () public view returns (uint) {\n        return PIN_hash_array.length;\n    }\n\n    function createLandTransfer (uint32 _PIN, uint32 _buyer_id, uint32 _lat, uint32 _lon) public returns (bool) {\n        var newLandTransfer = landTransfers[_PIN];\n        newLandTransfer.buyer_id = _buyer_id;\n        newLandTransfer.lat = _lat;\n        newLandTransfer.lon = _lon;\n        newLandTransfer.init = true;\n        PIN_hash_array.push(_PIN);\n    }\n\n    function getLandTransfer (uint32 _PIN) public view returns (uint32, uint32, uint32) {\n        var landTransferRecord = landTransfers[_PIN];\n        return (landTransferRecord.buyer_id, landTransferRecord.lat, landTransferRecord.lon);\n    }\n }",
  "sourcePath": "/home/jeff/capstone/solander/solander_react/contracts/LandTransfers.sol",
  "compiler": {
    "name": "solc",
    "version": "0.4.19+commit.c4cbbb05.Emscripten.clang"
  },
  "schemaVersion": "1.0.1",
  "updatedAt": "2018-03-07T18:27:34.093Z"
}