{
  "contractName": "SimpleStorage",
  "abi": [
    {
      "constant": false,
      "inputs": [
        {
          "name": "x",
          "type": "uint256"
        }
      ],
      "name": "set",
      "outputs": [],
      "payable": false,
      "stateMutability": "nonpayable",
      "type": "function"
    },
    {
      "constant": true,
      "inputs": [],
      "name": "get",
      "outputs": [
        {
          "name": "",
          "type": "uint256"
        }
      ],
      "payable": false,
      "stateMutability": "view",
      "type": "function"
    },
    {
      "constant": false,
      "inputs": [
        {
          "name": "y",
          "type": "bytes32"
        }
      ],
      "name": "setString",
      "outputs": [],
      "payable": false,
      "stateMutability": "nonpayable",
      "type": "function"
    },
    {
      "constant": true,
      "inputs": [],
      "name": "getString",
      "outputs": [
        {
          "name": "",
          "type": "bytes32"
        }
      ],
      "payable": false,
      "stateMutability": "view",
      "type": "function"
    }
  ],
  "bytecode": "0x6060604052341561000f57600080fd5b6101628061001e6000396000f300606060405260043610610062576000357c0100000000000000000000000000000000000000000000000000000000900463ffffffff168063157baf481461006757806360fe47b11461008e5780636d4ce63c146100b157806389ea642f146100da575b600080fd5b341561007257600080fd5b61008c60048080356000191690602001909190505061010b565b005b341561009957600080fd5b6100af6004808035906020019091905050610119565b005b34156100bc57600080fd5b6100c4610123565b6040518082815260200191505060405180910390f35b34156100e557600080fd5b6100ed61012c565b60405180826000191660001916815260200191505060405180910390f35b806001816000191690555050565b8060008190555050565b60008054905090565b60006001549050905600a165627a7a723058205f6cbf6c084d540055057ee17624fd704ae2e5d756f4d8449cc6552c2ed17aa30029",
  "source": "pragma solidity ^0.4.18;\n\ncontract SimpleStorage {\n  uint storedData;\n  bytes32 storedString;\n\n  function set(uint x) public {\n    storedData = x;\n  }\n\n  function get() public view returns (uint) {\n    return storedData;\n  }\n\n  function setString(bytes32 y) public {\n  \tstoredString = y;\n  }\n\n  function getString() public view returns (bytes32) {\n    return storedString;\n  }\n}\n",
  "sourcePath": "/home/jeff/capstone/solander/solander_react/contracts/SimpleStorage.sol",
  "compiler": {
    "name": "solc",
    "version": "0.4.19+commit.c4cbbb05.Emscripten.clang"
  },
  "schemaVersion": "1.0.1",
  "updatedAt": "2018-02-21T04:50:27.319Z"
}