{
  "contractName": "Users",
  "abi": [
    {
      "constant": true,
      "inputs": [
        {
          "name": "_userID",
          "type": "uint32"
        }
      ],
      "name": "get_user_record",
      "outputs": [
        {
          "name": "",
          "type": "bytes32"
        },
        {
          "name": "",
          "type": "bytes32"
        },
        {
          "name": "",
          "type": "bytes32"
        }
      ],
      "payable": false,
      "stateMutability": "view",
      "type": "function"
    },
    {
      "constant": true,
      "inputs": [
        {
          "name": "_userID",
          "type": "uint32"
        },
        {
          "name": "_lastName",
          "type": "bytes32"
        },
        {
          "name": "_userID",
          "type": "uint32"
        },
        {
          "name": "_birthDate",
          "type": "bytes32"
        }
      ],
      "name": "get_lawyer_ID",
      "outputs": [
        {
          "name": "",
          "type": "uint32"
        }
      ],
      "payable": false,
      "stateMutability": "view",
      "type": "function"
    },
    {
      "constant": false,
      "inputs": [
        {
          "name": "_firstName",
          "type": "bytes32"
        },
        {
          "name": "_lastName",
          "type": "bytes32"
        },
        {
          "name": "_userID",
          "type": "uint32"
        },
        {
          "name": "_birthDate",
          "type": "bytes32"
        }
      ],
      "name": "create_user_record",
      "outputs": [
        {
          "name": "",
          "type": "bool"
        },
        {
          "name": "",
          "type": "bytes32"
        },
        {
          "name": "",
          "type": "bytes32"
        }
      ],
      "payable": false,
      "stateMutability": "nonpayable",
      "type": "function"
    }
  ],
  "bytecode": "0x6060604052341561000f57600080fd5b6102718061001e6000396000f300606060405260043610610057576000357c0100000000000000000000000000000000000000000000000000000000900463ffffffff168063402347461461005c5780636d7bff2d146100bf578063a2767d2d14610108575b600080fd5b341561006757600080fd5b610083600480803563ffffffff16906020019091905050610170565b60405180846000191660001916815260200183600019166000191681526020018260001916600019168152602001935050505060405180910390f35b34156100ca57600080fd5b6100e6600480803563ffffffff169060200190919050506101b3565b604051808263ffffffff1663ffffffff16815260200191505060405180910390f35b341561011357600080fd5b6101566004808035600019169060200190919080356000191690602001909190803563ffffffff16906020019091908035600019169060200190919050506101ee565b604051808215151515815260200191505060405180910390f35b6000806000806000808663ffffffff1663ffffffff1681526020019081526020016000209050806002015481600301548260040154935093509350509193909250565b60008060008363ffffffff1663ffffffff16815260200190815260200160002060010160009054906101000a900463ffffffff169050919050565b6000806000808563ffffffff1663ffffffff168152602001908152602001600020905085816002018160001916905550848160030181600019169055508281600401816000191690555060019150509493505050505600a165627a7a72305820b90b57aa4494f55ae641312af5b5ce5424966c6ec268cb3c50fe62ddb5da2aaa0029",
  "source": "pragma solidity ^0.4.18;\n\ncontract Users {\n    struct userInfo {\n        uint32[] ownedProperties;\n        uint32 lawyerID;\n        bytes32 firstName;\n        bytes32 lastName;\n        bytes32 birthDate;\n        address ethereumAddress;\n\n    }\n\n    mapping(uint32 => userInfo) userRecords;\n\n    function get_lawyer_ID(uint32 _userID ) public view returns (uint32) {\n        return userRecords[_userID].lawyerID;\n    }\n\n    function create_user_record (bytes32 _firstName, bytes32 _lastName, uint32 _userID, bytes32 _birthDate) public returns (bool) {\n        var userRecord = userRecords[_userID];\n        userRecord.firstName = _firstName;\n        userRecord.lastName = _lastName;\n        userRecord.birthDate = _birthDate;\n        //userRecord.push(_userID);\n        //userRecord.init = true;\n        return true;\n    }\n\n    function get_user_record (uint32 _userID) public view returns (bytes32, bytes32, bytes32) {\n        var userRecord = userRecords[_userID];\n        return (userRecord.firstName, userRecord.lastName, userRecord.birthDate);\n    }\n/*    function test_get_user_record (uint32 _userID) public view returns (bytes32) {\n        var userRecord = userRecords[_userID];\n        return userRecord.firstName;\n    }*/\n}",
  "sourcePath": "/home/girija/Documents/capstone/solander/solander_react/contracts/Users.sol",
  "compiler": {
    "name": "solc",
    "version": "0.4.18+commit.9cf6e910.Emscripten.clang"
  },
  "schemaVersion": "1.0.1",
  "updatedAt": "2018-03-19T00:44:09.538Z"
}